:020000040000FA
:100000000C9458000C9480000C9480000C94800098
:100010000C9480000C9480000C9480000C94800060
:100020000C9480000C9480000C9480000C94800050
:100030000C9480000C9480000C9480000C94800040
:100040000C9479040C9480000C94E9040C94C3047F
:100050000C9480000C9480000C9480000C94800020
:100060000C941B050C948000000000002500280063
:100070002B00040404040404040402020202020229
:10008000030303030303010204081020408001025C
:1000900004081020010204081020000000080002DB
:1000A00001000003040700000000000000003A0601
:1000B00011241FBECFEFD8E0DEBFCDBF11E0A0E01E
:1000C000B1E0E0EEF0E102C005900D92A833B10777
:1000D000D9F723E0A8E3B1E001C01D92AC30B2072C
:1000E000E1F710E0C8E5D0E004C02197FE010E94CE
:1000F0006808C735D107C9F70E9482060C946E08BC
:100100000C94000090E0FC01E656FF4F2491FC01A6
:10011000EA57FF4F3491FC01EE58FF4FE491EE2374
:10012000C9F0222339F0233001F1A8F4213019F16C
:10013000223029F1F0E0EE0FFF1FE859FF4FA591A3
:10014000B4918FB7F894EC91611126C030953E239D
:100150003C938FBF08952730A9F02830C9F0243090
:1001600049F7809180008F7D03C0809180008F7758
:1001700080938000DFCF84B58F7784BDDBCF84B5DB
:100180008F7DFBCF8091B0008F778093B000D2CF6E
:100190008091B0008F7DF9CF3E2BDACF3FB7F89436
:1001A0008091530290915402A0915502B091560251
:1001B00026B5A89B05C02F3F19F00196A11DB11DC2
:1001C0003FBFBA2FA92F982F8827BC01CD01620FFE
:1001D000711D811D911D42E0660F771F881F991FB9
:1001E0004A95D1F708958F929F92AF92BF92CF9286
:1001F000DF92EF92FF924B015C010E94CE006B01F7
:100200007C010E94CE006C197D098E099F09683E11
:10021000734081059105A8F321E0821A9108A10895
:10022000B10888EEC80E83E0D81EE11CF11C8114D1
:100230009104A104B10429F7FF90EF90DF90CF90D3
:10024000BF90AF909F908F90089508950895AF92BA
:10025000BF92CF92DF92EF92FF920F931F93CF93B3
:10026000DF936C017B018B01040F151FEB015E0115
:10027000AE18BF08C017D10759F06991D601ED91AA
:10028000FC910190F081E02DC6010995892B79F749
:10029000C501DF91CF911F910F91FF90EF90DF90FB
:1002A000CF90BF90AF900895FC01538D448D252FC2
:1002B00030E0842F90E0821B930B541710F0CF9600
:1002C000089501970895FC01918D828D981761F032
:1002D000A28DAE0FBF2FB11D5D968C91928D9F5F49
:1002E0009F73928F90E008958FEF9FEF0895FC0128
:1002F000918D828D981731F0828DE80FF11D858DDB
:1003000090E008958FEF9FEF0895FC01918D228D6D
:10031000892F90E0805C9F4F821B91098F739927F2
:10032000089587E592E00E94850121E0892B09F478
:1003300020E0822F089580E090E0892B29F00E9430
:10034000910181110C9400000895FC01A48DA80F67
:10035000B92FB11DA35ABF4F2C91848D90E0019607
:100360008F739927848FA689B7892C93A089B18927
:100370008C91837080648C93938D848D981306C0C8
:100380000288F389E02D80818F7D80830895EF922C
:10039000FF920F931F93CF93DF93EC0181E0888F3F
:1003A0009B8D8C8D98131AC0E889F989808185FF0F
:1003B00015C09FB7F894EE89FF896083E889F989B1
:1003C00080818370806480839FBF81E090E0DF91B3
:1003D000CF911F910F91FF90EF900895F62E0B8D06
:1003E00010E00F5F1F4F0F731127E02E8C8D8E11C1
:1003F0000CC00FB607FCFACFE889F989808185FF28
:10040000F5CFCE010E94A501F1CFEB8DEC0FFD2FB2
:10041000F11DE35AFF4FF0829FB7F8940B8FEA89E2
:10042000FB8980818062CFCFCF93DF93EC01888DF1
:100430008823B9F0AA89BB89E889F9898C9185FD5F
:1004400003C0808186FD0DC00FB607FCF7CF8C91ED
:1004500085FFF2CF808185FFEDCFCE010E94A501FF
:10046000E9CFDF91CF9108952091A001260F332786
:10047000331F21323105ECF42091C401FC0190E0DE
:1004800080E0243069F082E00895A091A0012191DC
:10049000AC0140585E4FA40FB52FB11D2C930196AF
:1004A000861798F38091A001680F6093A00180E007
:1004B000089581E008951092C40181E08093C601FF
:1004C0001092C50161E082E10E94820061E083E157
:1004D0000E948200E9EBF0E080818E7F8083808142
:1004E0008D7F808388E48093B80085E48093BC008E
:1004F0000895CF93DF9391E090937F018823B9F023
:10050000C091B800D091BA008091BC008A7B8093E2
:10051000BC0060E082E10E94820060E083E10E9412
:1005200082000E945B02D093BA00C093B800DF91B2
:10053000CF9108950895E091F1018091F001E817BD
:1005400030F4F0E0E65AFE4F808190E008958FEF9E
:100550009FEF08959091F1018091F0012FEF3FEF0F
:10056000981748F4E92FF0E0E65AFE4F208130E07A
:100570009F5F9093F101C90108958091F0019091DE
:10058000F101891B990B0895CF92DF92EF92FF92B0
:100590000F931F93CF93DF937C01CB018A012091AE
:1005A0005901222389F0EB016B01C40ED51ECC1535
:1005B000DD0569F06991D701ED91FC910190F08121
:1005C000E02DC7010995F3CF642F0E943402C801C2
:1005D000DF91CF911F910F91FF90EF90DF90CF901F
:1005E0000895CF93DF931F92CDB7DEB76983209133
:1005F00059012223F9F02091EE01203258F021E038
:1006000030E0FC013383228390E080E00F90DF91A3
:10061000CF9108958091EF01E82FF0E0E75CFE4F65
:10062000998190838F5F8093EF018093EE0181E049
:1006300090E0ECCF61E0CE0101960E943402F7CF4A
:10064000CF92DF92EF92FF920F931F93CF93DF939E
:10065000FC01C48121E020935901C093380110921C
:10066000EF011092EE018385682B84EF92E00E94E7
:10067000F102D091EE01D13208F092C00E94CE007A
:100680006B017C018091C401811165C082E080937F
:10069000C40181E08093C6018FEF8093C301109263
:1006A000E801D093E701A9E3B1E0E7ECF1E080E0F5
:1006B000D81385C01092E9018091E901CC0FC82BB5
:1006C000C093E9018091C501813009F07CC010928E
:1006D000C5010E94CE006B017C018091E9018093ED
:1006E000BB0080917B0190917C01A0917D01B09134
:1006F0007E01892B8A2B8B2B99F00E94CE000091D2
:100700007B0110917C0120917D0130917E016C195B
:100710007D098E099F090617170728073907E0F199
:100720008091BC0083FDD9CF85EC8093BC000E94F2
:10073000CE006B017C018091C401823009F445C078
:100740008091C3018F3F61F18091C301803241F1FB
:100750008091C30125C080917B0190917C01A09183
:100760007D01B0917E01892B8A2B8B2B09F48ACFD6
:100770000E94CE0000917B0110917C0120917D01AF
:1007800030917E016C197D098E099F0906171707A4
:100790002807390708F076CF80917A010E94790204
:1007A0001092EF011092EE0110925901DF91CF915A
:1007B0001F910F91FF90EF90DF90CF9008959D9142
:1007C00091938F5F75CF85EEB0CF80917B01909133
:1007D0007C01A0917D01B0917E01892B8A2B8B2B0E
:1007E00009F4A9CF0E94CE0000917B0110917C01F9
:1007F00020917D0130917E016C197D098E099F0940
:10080000061717072807390708F095CFC5CF0895B1
:1008100090E080E0089585ED8093BC0080917B019D
:1008200090917C01A0917D01B0917E010796A11D60
:10083000B11D23E0B695A795979587952A95D1F791
:100840002091BC0024FD03C01092C4010895409182
:100850007B0150917C0160917D0170917E01452B5F
:10086000462B472B69F30097A105B10541F02AE219
:100870002A95F1F700C00197A109B109E1CF809154
:100880007A010C9479020F931F93CF938C01C62F9A
:100890000E9420036C2F6460C8010E9420036C2F0B
:1008A0006B7FC8010E94200383EC90E00197F1F771
:1008B000CF911F910F9108950F931F93CF93DF93C3
:1008C0008C01D62FC42F607F642B0E94430480E1EB
:1008D000D89FB00111246C2BC801DF91CF911F91DB
:1008E0000F910C94430441E00E945C0481E090E08D
:1008F00008951F920F920FB60F9211242F933F93DA
:100900008F939F93AF93BF9380914F02909150022A
:10091000A0915102B091520230914E0223E0230F78
:100920002D3758F50196A11DB11D20934E028093DD
:100930004F0290935002A0935102B09352028091C3
:10094000530290915402A0915502B0915602019623
:10095000A11DB11D8093530290935402A0935502A0
:10096000B0935602BF91AF919F918F913F912F917C
:100970000F900FBE0F901F90189526E8230F029638
:10098000A11DB11DD2CF1F920F920FB60F9211244D
:100990002F933F934F935F936F937F938F939F9387
:1009A000AF93BF93EF93FF9387E592E00E94A50179
:1009B000FF91EF91BF91AF919F918F917F916F9137
:1009C0005F914F913F912F910F900FBE0F901F900D
:1009D00018951F920F920FB60F9211242F938F9399
:1009E0009F93EF93FF93E0916702F09168028081FB
:1009F000E0916D02F0916E0282FD1BC090818091AA
:100A000070028F5F8F7320917102821741F0E09125
:100A10007002F0E0E95AFD4F958F80937002FF91CC
:100A2000EF919F918F912F910F900FBE0F901F907C
:100A300018958081F4CF1F920F920FB60F92112458
:100A40002F933F934F935F936F937F938F939F93D6
:100A5000AF93BF93EF93FF938091B900887F803667
:100A600009F44AC0F0F5883209F4A7C018F58031BE
:100A700009F49BC0B8F4882309F4F9C0883009F45C
:100A800094C0FF91EF91BF91AF919F918F917F9112
:100A90006F915F914F913F912F910F900FBE0F90EB
:100AA0001F901895883109F488C0803251F78093DF
:100AB000C30114C0803409F49DC040F48033B9F3FD
:100AC0008833F9F68093C30185ECB0C0803509F412
:100AD00085C0883509F496C0883499F60E940B04C5
:100AE000D0CF883909F48CC038F5883729F050F414
:100AF000883611F0803729F683E08093C401109284
:100B0000C20157C0883809F47BC0803919F0803899
:100B100009F0B7CF8091C201803208F071C0E09136
:100B2000C20181E08E0F8093C2018091BB00F0E092
:100B3000EE55FE4F80833DC0803B39F0E0F4803AB3
:100B400009F479C0883A09F09CCF84E08093C4010D
:100B50001092A1011092A001E091EC01F091ED0141
:100B600009958091A00181110FC081E08093A001BF
:100B70001092800109C0803C09F4A6CF883C09F49A
:100B8000A3CF883B09F07DCFE091A10181E08E0FDA
:100B90008093A101F0E0E058FE4F80818093BB007C
:100BA0009091A1018091A00129C08091E9018093D9
:100BB000BB0085EC8093BC0064CF9091E8018091EC
:100BC000E701981758F5E091E80181E08E0F8093D6
:100BD000E801F0E0E953FE4F8081E9CFE091E801C0
:100BE00081E08E0F8093E8018091BB00F0E0E95333
:100BF000FE4F80839091E8018091E7019817C8F239
:100C000085E8D8CFE091E80181E08E0F8093E8017C
:100C10008091BB00F0E0E953FE4F80838091C601D4
:100C200081115CCF81E08093C50184EA8093BC0090
:100C30001092C40126CF85EC8093BC001092C401B1
:100C40008091C201803230F4E091C201F0E0EE55B3
:100C5000FE4F10826091C20170E0E091EA01F091D4
:100C6000EB0182EA91E009951092C2010ACF10923D
:100C7000C30134CFE7E5F2E01382128288EE93E0FD
:100C8000A0E0B0E084839583A683B7832CE031E0B5
:100C90003183208325EC30E03587248724EC30E055
:100CA0003787268720EC30E0318B208B21EC30E039
:100CB000338B228B22EC30E0358B248B26EC30E01A
:100CC000378B268B118E128E138E148EE4EFF2E08A
:100CD0001382128284839583A683B7838EE191E089
:100CE00091838083E0E0F3E01382128280E391E05D
:100CF0009183808387E2848380E1818782E0828799
:100D000013860895CF93DF93CDB7DEB728970FB63C
:100D1000F894DEBF0FBECDBF789484B5826084BDE9
:100D200084B5816084BD85B5826085BD85B58160EF
:100D300085BD80916E00816080936E00109281006D
:100D40008091810082608093810080918100816028
:100D500080938100809180008160809380008091E9
:100D6000B10084608093B1008091B0008160809375
:100D7000B00080917A00846080937A0080917A003C
:100D8000826080937A0080917A00816080937A00FB
:100D900080917A00806880937A001092C100E0917F
:100DA0006702F091680282E08083E0916302F09133
:100DB00064021082E0916502F09166028FEC8083FC
:100DC00010926F02E0916B02F0916C0286E08083DA
:100DD000E0916902F0916A02808180618083E091F4
:100DE0006902F0916A02808188608083E0916902E3
:100DF000F0916A02808180688083E0916902F091BD
:100E00006A0280818F7D80831092F1011092F0013F
:100E10001092EF011092EE010E945B0285E291E0D8
:100E20009093ED018093EC0186E291E09093EB01C9
:100E30008093EA011092050380910A03823018F032
:100E400098E0909305038093080362E370E080E0EC
:100E500090E00E94F30060910B0380E093E00E9419
:100E6000200368EE73E080E090E00E94F30060E30E
:100E700080E093E00E9443040BE416E4C80101976C
:100E8000F1F760E380E093E00E944304C80101971A
:100E9000F1F760E380E093E00E94430483E592E091
:100EA0000197F1F760E280E093E00E9443046091D3
:100EB0000503606240E080E093E00E945C0484E00F
:100EC0008093060340E06CE080E093E00E945C04C5
:100ED00040E061E080E093E00E945C040BE31FE1EE
:100EE000C8010197F1F782E08093070340E066E0D4
:100EF00080E093E00E945C0440E062E080E093E0E8
:100F00000E945C04C8010197F1F788E080930B030D
:100F100060E080E093E00E9420032AE0B22E06E029
:100F200012E032EFE32E31E0F32E90E0C92E90E094
:100F3000D92E87E592E00E9485011816190664F4FF
:100F400087E592E00E9463018A3381F410924D029A
:100F500010924C0280931A02C114D10451F30E94E2
:100F60009101882331F30E940000DFCF20914C02D1
:100F700030914D02A9014F5F5F4FFA01E65EFD4FD0
:100F8000833231F050934D0240934C028083E4CF82
:100F90008083C901029690934D0280934C02865E35
:100FA0009D4FFC01108220911F02022E000C330B7A
:100FB00020533109B29EA001B39E500D112480919F
:100FC0002002082E000C990BC097840F951FE1E2B8
:100FD000F2E0A6E0B2E0AC014A5F5F4F9F012A5108
:100FE0003240421753071CF021912D93F7CF97FF02
:100FF00002C090E080E0FC01EA5FFD4F1782FC0137
:10100000E65EFD4F4485042E000C550B40535109FC
:10101000B49EB001B59E700D11242585022E000CE2
:10102000330B20533109260F371F0E96AC01465E55
:101030005D4FA2EFB1E0820F931FFD01E25FF1402F
:101040009A012A513240281739072CF4FA012191CC
:10105000AF012D93F2CFEE50FE4F1182F8010190B7
:101060000020E9F7AF014750524066E072E080E0AF
:1010700093E00E94270188E0E0E0F1E0DE011196B4
:1010800001900D928A95E1F780910803E1E08111CA
:1010900001C0EFEFF0E0EE0FFF1F81E090E08C0F5A
:1010A0009D1FE80FF91F6081606840E080E093E0D9
:1010B0000E945C04F70101900020E9F7AF01435F53
:1010C000514062EF71E080E093E00E94270144CF3D
:1010D000EE0FFF1F0590F491E02D0994F894FFCFD7
:1010E000000040001400540000000000C701270168
:1010F0005401140285016301770100000000F10230
:10110000C40208049A02BD02AA029B020000000069
:08111000730427010804070421
:107E0000112484B714BE81FFF0D085E080938100F7
:107E100082E08093C00088E18093C10086E0809377
:107E2000C20080E18093C4008EE0C9D0259A86E02C
:107E300020E33CEF91E0309385002093840096BBD3
:107E4000B09BFECF1D9AA8958150A9F7CC24DD24C4
:107E500088248394B5E0AB2EA1E19A2EF3E0BF2EE7
:107E6000A2D0813461F49FD0082FAFD0023811F036
:107E7000013811F484E001C083E08DD089C08234E0
:107E800011F484E103C0853419F485E0A6D080C0E4
:107E9000853579F488D0E82EFF2485D0082F10E0AE
:107EA000102F00270E291F29000F111F8ED06801E7
:107EB0006FC0863521F484E090D080E0DECF843638
:107EC00009F040C070D06FD0082F6DD080E0C81688
:107ED00080E7D80618F4F601B7BEE895C0E0D1E017
:107EE00062D089930C17E1F7F0E0CF16F0E7DF06D8
:107EF00018F0F601B7BEE89568D007B600FCFDCFD4
:107F0000A601A0E0B1E02C9130E011968C91119780
:107F100090E0982F8827822B932B1296FA010C0160
:107F200087BEE89511244E5F5F4FF1E0A038BF0790
:107F300051F7F601A7BEE89507B600FCFDCF97BE46
:107F4000E89526C08437B1F42ED02DD0F82E2BD052
:107F50003CD0F601EF2C8F010F5F1F4F84911BD097
:107F6000EA94F801C1F70894C11CD11CFA94CF0C13
:107F7000D11C0EC0853739F428D08EE10CD085E9AC
:107F80000AD08FE07ACF813511F488E018D01DD067
:107F900080E101D065CF982F8091C00085FFFCCF94
:107FA0009093C60008958091C00087FFFCCF809118
:107FB000C00084FD01C0A8958091C6000895E0E648
:107FC000F0E098E1908380830895EDDF803219F02E
:107FD00088E0F5DFFFCF84E1DECF1F93182FE3DFCA
:107FE0001150E9F7F2DF1F91089580E0E8DFEE27F6
:047FF000FF270994CA
:027FFE00040479
:00000001FF
