:020000040000FA
:100000000C945D000C9485000C9485000C94850084
:100010000C9485000C9485000C9485000C9485004C
:100020000C9485000C9485000C9485000C9485003C
:100030000C9485000C9485000C9485000C9485002C
:100040000C9408030C9485000C9478030C945203D0
:100050000C9485000C9485000C9485000C9485000C
:100060000C9485000C94850000000008000201003B
:100070000003040700000000000000000000000072
:10008000250028002B0000000000240027002A0083
:10009000040404040404040402020202020203032E
:1000A0000303030301020408102040800102040836
:1000B00010200102040810207E0411241FBECFEF7F
:1000C000D8E0DEBFCDBF11E0A0E0B1E0EAEAF9E0A0
:1000D00002C005900D92A033B107D9F721E0A0E34B
:1000E000B1E001C01D92A83DB207E1F710E0CDE5F7
:1000F000D0E004C02197FE010E94CD04CC35D10789
:10010000C9F70E94AA030C94D3040C94000090E059
:10011000FC01EC55FF4F249180579F4FFC018491C7
:10012000882399F090E0880F991FFC01EA57FF4F50
:10013000A591B491FC01E458FF4F859194918FB73C
:10014000F894EC91E22BEC938FBF089590E0FC01C2
:10015000E859FF4F2491FC01EC55FF4F3491FC010D
:10016000E057FF4FE491EE23C9F0222339F023300A
:1001700001F1A8F4213019F1223029F1F0E0EE0F5D
:10018000FF1FE458FF4FA591B4918FB7F894EC91FD
:10019000611126C030953E233C938FBF08952730D0
:1001A000A9F02830C9F0243049F7809180008F7D74
:1001B00003C0809180008F7780938000DFCF84B56B
:1001C0008F7784BDDBCF84B58F7DFBCF8091B0006E
:1001D0008F778093B000D2CF8091B0008F7DF9CF20
:1001E0003E2BDACF3FB7F8948091370190913801D8
:1001F000A0913901B0913A0126B5A89B05C02F3FC7
:1002000019F00196A11DB11D3FBFBA2FA92F982F3C
:100210008827BC01CD01620F711D811D911D42E037
:10022000660F771F881F991F4A95D1F708958F92FF
:100230009F92AF92BF92CF92DF92EF92FF924B01CB
:100240005C010E94F2006B017C010E94F2006C19BB
:100250007D098E099F09683E734081059105A8F3C9
:1002600021E0821A9108A108B10888EEC80E83E047
:10027000D81EE11CF11C81149104A104B10429F7DA
:10028000FF90EF90DF90CF90BF90AF909F908F90B6
:100290000895AF92BF92CF92DF92EF92FF920F93A9
:1002A0001F93CF93DF936C017B018B01040F151F0C
:1002B000EB015E01AE18BF08C017D10759F0699174
:1002C000D601ED91FC910190F081E02DC6010995D8
:1002D000892B79F7C501DF91CF911F910F91FF9085
:1002E000EF90DF90CF90BF90AF900895FC01538DB9
:1002F000448D252F30E0842F90E0821B930B541700
:1003000010F0CF96089501970895FC01918D828D8C
:10031000981761F0A28DAE0FBF2FB11D5D968C9125
:10032000928D9F5F9F73928F90E008958FEF9FEF64
:100330000895FC01918D828D981731F0828DE80F20
:10034000F11D858D90E008958FEF9FEF0895FC01DA
:10035000918D228D892F90E0805C9F4F821B9109A7
:100360008F73992708958BE391E00E94A70121E004
:10037000892B09F420E0822F089580E090E0892BFA
:1003800029F00E94B30181110C9400000895FC0132
:10039000A48DA80FB92FB11DA35ABF4F2C91848DE6
:1003A00090E001968F739927848FA689B7892C9343
:1003B000A089B1898C91837080648C93938D848D96
:1003C000981306C00288F389E02D80818F7D808399
:1003D0000895EF92FF920F931F93CF93DF93EC0159
:1003E00081E0888F9B8D8C8D98131AC0E889F989DC
:1003F000808185FF15C09FB7F894EE89FF896083DF
:10040000E889F98980818370806480839FBF81E05F
:1004100090E0DF91CF911F910F91FF90EF900895A1
:10042000F62E0B8D10E00F5F1F4F0F731127E02E7C
:100430008C8D8E110CC00FB607FCFACFE889F989B4
:10044000808185FFF5CFCE010E94C701F1CFEB8DF2
:10045000EC0FFD2FF11DE35AFF4FF0829FB7F89488
:100460000B8FEA89FB8980818062CFCFCF93DF93A6
:10047000EC01888D8823B9F0AA89BB89E889F989BC
:100480008C9185FD03C0808186FD0DC00FB607FCF1
:10049000F7CF8C9185FFF2CF808185FFEDCFCE0124
:1004A0000E94C701E9CFDF91CF910895FC0101902F
:1004B0000020E9F73197AF01481B590BBC018BE3D2
:1004C00091E00C9449018F929F92AF92BF92CF928C
:1004D000DF92EF92FF920F931F93CF93DF93CDB7ED
:1004E000DEB7A1970FB6F894DEBF0FBECDBF6C018B
:1004F000990FEE08FF08F7FE47C06DE28BE391E02D
:100500000E94E9018C0122273327A9012C193D09FA
:100510004E095F0919A2CE0181967C019AE0892ECD
:10052000912CA12CB12CCA01B901A50194010E9402
:10053000AB04605DF70162937F0121153105410530
:10054000510589F790E080E0309719F0CF010E94C3
:100550005602080F191F88E291E00E945602800F90
:10056000911FA1960FB6F894DEBF0FBECDBFDF91ED
:10057000CF911F910F91FF90EF90DF90CF90BF90A0
:10058000AF909F908F900895A701960119A28E01B8
:100590000F5D1F4F8AE0C82ED12CE12CF12CCA012F
:1005A000B901A70196010E94AB04605DF801629356
:1005B0008F01211531054105510589F7309729F043
:1005C000CF010E9456028C01C6CF10E000E0C3CFDD
:1005D000CF93DF93D82F60E088E00E94A600C8E0A8
:1005E0006D2F661F6627661F8BE00E94A600DD0F39
:1005F00061E08CE00E94A60060E08CE00E94A60012
:10060000C15071F761E088E0DF91CF910C94A600B2
:100610001F920F920FB60F9211242F933F938F9337
:100620009F93AF93BF938091330190913401A09138
:100630003501B09136013091320123E0230F2D377F
:1006400058F50196A11DB11D20933201809333010D
:1006500090933401A0933501B09336018091370116
:1006600090913801A0913901B0913A010196A11DF4
:10067000B11D8093370190933801A0933901B09355
:100680003A01BF91AF919F918F913F912F910F9020
:100690000FBE0F901F90189526E8230F0296A11DFC
:1006A000B11DD2CF1F920F920FB60F9211242F932C
:1006B0003F934F935F936F937F938F939F93AF93EA
:1006C000BF93EF93FF938BE391E00E94C701FF91EB
:1006D000EF91BF91AF919F918F917F916F915F91BA
:1006E0004F913F912F910F900FBE0F901F90189533
:1006F0001F920F920FB60F9211242F938F939F93F7
:10070000EF93FF93E0914B01F0914C018081E091D8
:100710005101F091520182FD1BC0908180915401E2
:100720008F5F8F7320915501821741F0E091540142
:10073000F0E0E55CFE4F958F80935401FF91EF91BF
:100740009F918F912F910F900FBE0F901F90189532
:100750008081F4CF789484B5826084BD84B5816053
:1007600084BD85B5826085BD85B5816085BD80917C
:100770006E00816080936E001092810080918100F4
:1007800082608093810080918100816080938100EC
:10079000809180008160809380008091B1008460AE
:1007A0008093B1008091B00081608093B00080910F
:1007B0007A00846080937A0080917A0082608093CE
:1007C0007A0080917A00816080937A0080917A002B
:1007D000806880937A001092C10088E00E948700B0
:1007E0008CE00E9487008BE00E94870061E088E037
:1007F0000E94A6008FEF0E94E8028FEF0E94E8029D
:10080000E0914B01F0914C0182E08083E09147013F
:10081000F09148011082E0914901F0914A018FEC7A
:10082000808310925301E0914F01F091500186E0D6
:100830008083E0914D01F0914E0180818061808341
:10084000E0914D01F0914E01808188608083E091BC
:100850004D01F0914E01808180688083E0914D01CF
:10086000F0914E0180818F7D8083E0913001F09185
:100870003101EE0FFF1FEE5EFE4F808191810E94DD
:1008800063026CED75E080E090E00E94170100E0EB
:1008900010E082EC0E94E80287EF0E94E8028BE2FF
:1008A00091E00E9456028AE090E00E946302C091AB
:1008B0003001D09131012196D0933101C0933001A4
:1008C00064EF71E080E090E00E941701CE010E9489
:1008D000630280913001909131018436910521F4B9
:1008E00010923101109230010115110591F20E9410
:1008F000B301882371F20E940000CBCFEBE3F1E05B
:100900001382128288EE93E0A0E0B0E084839583A6
:10091000A683B78384E091E09183808385EC90E0A7
:100920009587848784EC90E09787868780EC90E0B9
:10093000918B808B81EC90E0938B828B82EC90E0AA
:10094000958B848B86EC90E0978B868B118E128E24
:10095000138E148E0895A1E21A2EAA1BBB1BFD0153
:100960000DC0AA1FBB1FEE1FFF1FA217B307E4078E
:10097000F50720F0A21BB30BE40BF50B661F771FE6
:10098000881F991F1A9469F76095709580959095C6
:100990009B01AC01BD01CF010895EE0FFF1F059033
:1009A000F491E02D0994F894FFCF00000000E901D4
:1009B000490176013602A701850199010000010075
:1009C00002000300040005000600070008000900FB
:0A09D0000A000D0A00464C2E00003C
:107E0000112484B714BE81FFF0D085E080938100F7
:107E100082E08093C00088E18093C10086E0809377
:107E2000C20080E18093C4008EE0C9D0259A86E02C
:107E300020E33CEF91E0309385002093840096BBD3
:107E4000B09BFECF1D9AA8958150A9F7CC24DD24C4
:107E500088248394B5E0AB2EA1E19A2EF3E0BF2EE7
:107E6000A2D0813461F49FD0082FAFD0023811F036
:107E7000013811F484E001C083E08DD089C08234E0
:107E800011F484E103C0853419F485E0A6D080C0E4
:107E9000853579F488D0E82EFF2485D0082F10E0AE
:107EA000102F00270E291F29000F111F8ED06801E7
:107EB0006FC0863521F484E090D080E0DECF843638
:107EC00009F040C070D06FD0082F6DD080E0C81688
:107ED00080E7D80618F4F601B7BEE895C0E0D1E017
:107EE00062D089930C17E1F7F0E0CF16F0E7DF06D8
:107EF00018F0F601B7BEE89568D007B600FCFDCFD4
:107F0000A601A0E0B1E02C9130E011968C91119780
:107F100090E0982F8827822B932B1296FA010C0160
:107F200087BEE89511244E5F5F4FF1E0A038BF0790
:107F300051F7F601A7BEE89507B600FCFDCF97BE46
:107F4000E89526C08437B1F42ED02DD0F82E2BD052
:107F50003CD0F601EF2C8F010F5F1F4F84911BD097
:107F6000EA94F801C1F70894C11CD11CFA94CF0C13
:107F7000D11C0EC0853739F428D08EE10CD085E9AC
:107F80000AD08FE07ACF813511F488E018D01DD067
:107F900080E101D065CF982F8091C00085FFFCCF94
:107FA0009093C60008958091C00087FFFCCF809118
:107FB000C00084FD01C0A8958091C6000895E0E648
:107FC000F0E098E1908380830895EDDF803219F02E
:107FD00088E0F5DFFFCF84E1DECF1F93182FE3DFCA
:107FE0001150E9F7F2DF1F91089580E0E8DFEE27F6
:047FF000FF270994CA
:027FFE00040479
:00000001FF
