:020000040000FA
:100000000C9463000C948B000C948B000C948B006C
:100010000C948B000C948B000C948B000C948B0034
:100020000C948B000C948B000C948B000C948B0024
:100030000C948B000C948B000C948B000C948B0014
:100040000C94CE020C948B000C943E030C94180379
:100050000C948B000C948B000C948B000C948B00F4
:100060000C948B000C948B000000000025002800ED
:100070002B0000000000240027002A0000000000E0
:1000800023002600290004040404040404040202DA
:100090000202020203030303030301020408102007
:1000A0004080010204081020010204081020000012
:1000B0000008000201000003040700000000000027
:1000C00000007003590511241FBECFEFD8E0DEBF3A
:1000D000CDBF22E0A6E5B1E001C01D92AA31B20772
:1000E000E1F711E0A0E0B1E0E4E0F0E102C005904A
:1000F0000D92A635B107D9F710E0C2E6D0E004C0F2
:100100002197FE010E94FD05C136D107C9F70E9463
:10011000B4030C94F5070C940000ECEBF0E0849130
:10012000E8EAF0E09491E4E9F0E0E491EE23C1F133
:10013000882339F08330E9F090F4813001F1823086
:1001400011F1F0E0EE0FFF1FE458FF4FA591B491BD
:10015000EC91E92381E090E029F580E00895873073
:10016000A9F08830C9F0843061F7809180008F7DDC
:1001700003C0809180008F7780938000E2CF84B5A8
:100180008F7784BDDECF84B58F7DFBCF8091B000AB
:100190008F778093B000D5CF8091B0008F7DF9CF5D
:1001A00080E090E008953FB7F89480915D019091D0
:1001B0005E01A0915F01B091600126B5A89B05C0CA
:1001C0002F3F19F00196A11DB11D3FBFBA2FA92FD6
:1001D000982F8827BC01CD01620F711D811D911DD3
:1001E00042E0660F771F881F991F4A95D1F708953F
:1001F000AF92BF92CF92DF92EF92FF920F931F9335
:10020000CF93DF936C017B018B01040F151FEB0172
:100210005E01AE18BF08C017D10759F06991D60129
:10022000ED91FC910190F081E02DC6010995892B9B
:1002300079F7C501DF91CF911F910F91FF90EF905A
:10024000DF90CF90BF90AF900895FC01538D448D07
:10025000252F30E0842F90E0821B930B541710F071
:10026000CF96089501970895FC01918D828D98177E
:1002700061F0A28DAE0FBF2FB11D5D968C91928D56
:100280009F5F9F73928F90E008958FEF9FEF089587
:10029000FC01918D828D981731F0828DE80FF11D50
:1002A000858D90E008958FEF9FEF0895FC01918D6B
:1002B000228D892F90E0805C9F4F821B91098F7364
:1002C0009927089581E691E00E94560121E0892B4B
:1002D00009F420E0822F089580E090E0892B29F036
:1002E0000E94620181110C9400000895FC01A48D0C
:1002F000A80FB92FB11DA35ABF4F2C91848D90E048
:1003000001968F739927848FA689B7892C93A0892A
:10031000B1898C91837080648C93938D848D9813B4
:1003200006C00288F389E02D80818F7D8083089547
:10033000EF92FF920F931F93CF93DF93EC0181E035
:10034000888F9B8D8C8D98131AC0E889F9898081DC
:1003500085FF15C09FB7F894EE89FF896083E8890F
:10036000F98980818370806480839FBF81E090E001
:10037000DF91CF911F910F91FF90EF900895F62E8E
:100380000B8D10E00F5F1F4F0F731127E02E8C8D28
:100390008E110CC00FB607FCFACFE889F98980816D
:1003A00085FFF5CFCE010E947601F1CFEB8DEC0FEA
:1003B000FD2FF11DE35AFF4FF0829FB7F8940B8F8A
:1003C000EA89FB8980818062CFCFCF93DF93EC01F4
:1003D000888D8823B9F0AA89BB89E889F9898C912D
:1003E00085FD03C0808186FD0DC00FB607FCF7CFE9
:1003F0008C9185FFF2CF808185FFEDCFCE010E94E9
:100400007601E9CFDF91CF910895CF93DF93EC018F
:1004100088819981009711F00E949F0619821882A5
:100420001D821C821B821A82DF91CF910895FC01EC
:1004300080819181009711F00C949F0608950F938D
:100440001F93CF93DF93EC0188819981009759F036
:100450002A813B812617370730F081E0DF91CF9169
:100460001F910F9108958B016F5F7F4F0E942807A6
:10047000009759F0998388831B830A832C813D81DF
:10048000232B59F7FC011082E8CF80E0E7CFEF92F1
:10049000FF920F931F93CF93DF936115710541F482
:1004A00080E0DF91CF911F910F91FF90EF90089521
:1004B00041155105B1F07B01EC010C811D81040F48
:1004C000151FB8010E941F02882351F3288139812A
:1004D0008C819D81B701820F931F0E94EE071D83BF
:1004E0000C8381E0DECFCF93DF93EC01FB01019021
:1004F0000020E9F73197AF01461B570B0E944702D6
:10050000811103C0CE010E940502CE01DF91CF917F
:100510000895CF93DF93EC01FB0144815581608105
:1005200071810E944702811103C0CE010E94050221
:10053000CE01DF91CF910895EF92FF920F931F9319
:10054000CF93DF93EC017B018A01BA010E941F0265
:1005500081110BC0CE010E940502CE01DF91CF9127
:100560001F910F91FF90EF9008951D830C83B701A9
:10057000888199810E94EE07F0CFFC0111821082E0
:100580001382128215821482FB0101900020E9F788
:100590003197AF01461B570B0C949C021F920F9290
:1005A0000FB60F9211242F933F938F939F93AF9386
:1005B000BF938091590190915A01A0915B01B09134
:1005C0005C013091580123E0230F2D3758F5019637
:1005D000A11DB11D209358018093590190935A0198
:1005E000A0935B01B0935C0180915D0190915E01ED
:1005F000A0915F01B09160010196A11DB11D809392
:100600005D0190935E01A0935F01B0936001BF9183
:10061000AF919F918F913F912F910F900FBE0F90AF
:100620001F90189526E8230F0296A11DB11DD2CF69
:100630001F920F920FB60F9211242F933F934F9357
:100640005F936F937F938F939F93AF93BF93EF933A
:10065000FF9381E691E00E947601FF91EF91BF91B7
:10066000AF919F918F917F916F915F914F913F914A
:100670002F910F900FBE0F901F9018951F920F9201
:100680000FB60F9211242F938F939F93EF93FF93A5
:10069000E0917101F09172018081E0917701F09118
:1006A000780182FD1BC0908180917A018F5F8F73EA
:1006B00020917B01821741F0E0917A01F0E0EF593F
:1006C000FE4F958F80937A01FF91EF919F918F91CB
:1006D0002F910F900FBE0F901F9018958081F4CF2F
:1006E000E1E6F1E01382128288EE93E0A0E0B0E050
:1006F00084839583A683B7838DE091E09183808383
:1007000085EC90E09587848784EC90E097878687D6
:1007100080EC90E0918B808B81EC90E0938B828BCE
:1007200082EC90E0958B848B86EC90E0978B868BA7
:10073000118E128E138E148E6BE171E080E192E0C7
:100740000E94BD0265E271E08AE092E00E94BD0273
:100750006FE271E084E092E00E94BD026AE371E022
:100760008EEF91E00C94BD02CF93DF93CDB7DEB74F
:10077000E2970FB6F894DEBF0FBECDBF789484B574
:10078000826084BD84B5816084BD85B5826085BD8D
:1007900085B5816085BD80916E00816080936E001B
:1007A000109281008091810082608093810080910D
:1007B00081008160809381008091800081608093BE
:1007C00080008091B10084608093B1008091B0007E
:1007D00081608093B00080917A00846080937A0079
:1007E00080917A00826080937A0080917A008160A3
:1007F00080937A0080917A00806880937A001092CA
:10080000C100E0917101F091720182E08083E0917A
:100810006D01F0916E011082E0916F01F091700115
:100820008FEC808310927901E0917501F09176014F
:1008300086E08083E0917301F09174018081806192
:100840008083E0917301F0917401808188608083DE
:10085000E0917301F0917401808180688083E09160
:100860007301F091740180818F7D8083E8EAF0E06C
:100870002491E4E9F0E084918823C9F090E0880FA6
:10088000991FFC01EE58FF4F45915491FC01E85926
:10089000FF4FA591B4919FB7F894FA0180812095FC
:1008A000822380838C91E22FE823EC939FBF4090BA
:1008B000060150900701609008019E012B5D3F4F9B
:1008C0003AAB29AB8E010F5F1F4F90E0292E90E0CD
:1008D000392E0E948D00892B09F0CCC00E94D300D4
:1008E0006B017C0184E1882E912CA12CB12C0E94FB
:1008F000D3006C197D098E099F09683E73408105FC
:100900009105A8F331E0831A9108A108B10888EE97
:10091000C80E83E0D81EE11CF11C81149104A104CF
:10092000B10429F70E948D00892BE1F35091140244
:10093000852F9091150240910E02242F30910F02C5
:100940004EA65FA668AA4BA65CA66DA68A30910546
:100950000CF09CC0505D5FA72A3031050CF09FC0A1
:10096000405D4CA7BE01655D7F4FCE014F960E9452
:10097000BD02BE01625D7F4FCE0149960E94BD025D
:1009800080915601909157011C8A1B8A1E8A1D8AEC
:10099000188E1F8A4AE0B8010E946905F80101908B
:1009A0000020E9F73197AF01401B510BB801CE0190
:1009B00043960E949C0267E471E0C8010E94BD0258
:1009C000BE016D5E7F4FC8010E9489026AE471E03A
:1009D0000E947302BE01675E7F4F0E94890260E140
:1009E00072E00E9489026DE471E00E947302BE0110
:1009F000615E7F4F0E9489026AE072E00E94890274
:100A000063E571E00E9473021EA21DA218A61FA238
:100A10001AA619A629A93AA98217930761F0FC0121
:100A2000608171816115710531F044815581CE017C
:100A300085960E949C02C8010E941702CE0143962F
:100A40000E941702CE0149960E941702CE014F96CE
:100A50000E94170249A55AA56DA17EA181E691E0E9
:100A60000E94F8001092570110925601CE0185960F
:100A70000E9417022114310409F42BCF0E94620155
:100A8000882309F41FCF0E9400001CCF6AE070E0A9
:100A90000E94D505605D6EA7805D8FA75DCFC901FF
:100AA0006AE070E00E94D505605D6BA7805D8CA751
:100AB00059CF8EEF91E00E94170284E092E00E94ED
:100AC00017028AE092E00E94170280E192E00C9403
:100AD0001702BB274A3031F4992322F4BDE29095E6
:100AE00081959F4F0C947505BB27FB015527AA27BD
:100AF000880F991FAA1FA41710F0A41B83955051AB
:100B0000B9F7A05DAA3308F0A95DA193009779F722
:100B1000B111B1931192CB010C948E05DC01FC0153
:100B2000672F71917723E1F7329704C07C916D9321
:100B300070836291AE17BF07C8F308952F923F925A
:100B40004F925F926F927F928F929F92AF92BF92DD
:100B5000CF92DF92EF92FF920F931F93CF93DF9389
:100B6000CDB7DEB7CA1BDB0B0FB6F894DEBF0FBEE6
:100B7000CDBF09942A88398848885F846E847D8433
:100B80008C849B84AA84B984C884DF80EE80FD8035
:100B90000C811B81AA81B981CE0FD11D0FB6F894AB
:100BA000DEBF0FBECDBFED01089597FB072E16F4F3
:100BB000009407D077FD09D00E94E90507FC05D015
:100BC0003EF4909581959F4F0895709561957F4F64
:100BD0000895AA1BBB1B51E107C0AA1FBB1FA61784
:100BE000B70710F0A61BB70B881F991F5A95A9F7D6
:100BF00080959095BC01CD010895EE0FFF1F0590E3
:100C0000F491E02D09940F931F93CF93DF938230DB
:100C1000910510F482E090E0E0911802F091190241
:100C200030E020E0B0E0A0E0309799F421153105E4
:100C300009F44AC0281B390B24303105D8F58A81C4
:100C40009B816115710589F1FB0193838283FE010C
:100C500011C0408151810281138148175907E0F08A
:100C60004817590799F4109761F012960C93129750
:100C700013961C933296CF01DF91CF911F910F9164
:100C800008950093180210931902F4CF211531052D
:100C900051F04217530738F0A901DB019A01BD0159
:100CA000DF01F801C1CFEF01F9CF909319028093D2
:100CB0001802CDCFFE01E20FF31F819391932250D2
:100CC000310939832883D7CF20911602309117023A
:100CD000232B41F42091020130910301309317023C
:100CE0002093160220910001309101012115310558
:100CF00041F42DB73EB74091040150910501241BEA
:100D0000350BE0911602F0911702E217F307A0F4F9
:100D10002E1B3F0B2817390778F0AC014E5F5F4F51
:100D20002417350748F04E0F5F1F5093170240936A
:100D30001602819391939FCFF0E0E0E09CCFCF9398
:100D4000DF930097E9F0FC01329713821282A091A1
:100D50001802B0911902ED0130E020E01097A1F4E3
:100D600020813181820F931F20911602309117024A
:100D70002817390709F061C0F0931702E0931602B3
:100D8000DF91CF910895EA01CE17DF07E8F54A8198
:100D90005B819E0141155105B1F7E901FB83EA83AF
:100DA00049915991C40FD51FEC17FD0761F480815B
:100DB00091810296840F951FE9019983888382812E
:100DC00093819B838A83F0E0E0E012968D919C9161
:100DD00013970097B9F52D913C911197CD0102968B
:100DE000820F931F2091160230911702281739079E
:100DF00039F6309751F51092190210921802B093FB
:100E00001702A0931602BCCFD383C28340815181C5
:100E1000840F951FC817D90761F44E5F5F4F888113
:100E20009981480F591F518340838A819B81938305
:100E300082832115310509F0B0CFF0931902E093B8
:100E400018029ECFFD01DC01C0CF13821282D7CFE2
:100E5000B0E0A0E0EEE2F7E00C94A0058C01009772
:100E600051F4CB010E9403068C01C801CDB7DEB757
:100E7000E0E10C94BC05FC01E60FF71F9C01225039
:100E80003109E217F30708F49DC0D901CD91DC9137
:100E90001197C617D70798F0C530D10530F3CE01AA
:100EA00004978617970708F3C61BD70B2297C193A1
:100EB000D1936D937C93CF010E949F06D6CF5B01A7
:100EC000AC1ABD0A4C018C0E9D1EA0911802B09167
:100ED0001902512C412CF12CE12C109731F5809105
:100EE0001602909117028815990509F05CC0461604
:100EF000570608F058C080910001909101010097B9
:100F000041F48DB79EB74091040150910501841BB7
:100F1000950BE817F90708F055C0F0931702E09316
:100F20001602F90171836083A0CF8D919C91119776
:100F300012966C90129713967C901397A815B9058A
:100F400059F56C0142E0C40ED11CCA14DB0420F137
:100F5000AC014A195B09DA011296159780F062829A
:100F6000738251834083D9016D937C93E114F10422
:100F700071F0D7011396FC93EE93129776CF2296D9
:100F80008C0F9D1FF90191838083F301EFCFF093C4
:100F90001902E093180269CF4816590608F42C018B
:100FA0007D01D3019ACFCB010E9403067C010097FB
:100FB00049F0AE01B8010E94E507C8010E949F06F2
:100FC000870153CF10E000E050CFFB01DC0102C0ED
:100FD00001900D9241505040D8F70895FB01DC017B
:100FE00001900D920020E1F7089510E0C2E6D0E0F4
:100FF00004C0FE010E94FD052196C336D107C9F742
:10100000F894FFCF00001A0280003030000000008A
:10101000009801F8002501E5015601340148014E10
:101020004150484150484F4E004B4C41494D414E74
:1010300045450048696B696B6F6D616C69006B6158
:101040006E64617468626C6F6F64003A6E006D6507
:0A105000005F6C6173740023000060
:107E0000112484B714BE81FFF0D085E080938100F7
:107E100082E08093C00088E18093C10086E0809377
:107E2000C20080E18093C4008EE0C9D0259A86E02C
:107E300020E33CEF91E0309385002093840096BBD3
:107E4000B09BFECF1D9AA8958150A9F7CC24DD24C4
:107E500088248394B5E0AB2EA1E19A2EF3E0BF2EE7
:107E6000A2D0813461F49FD0082FAFD0023811F036
:107E7000013811F484E001C083E08DD089C08234E0
:107E800011F484E103C0853419F485E0A6D080C0E4
:107E9000853579F488D0E82EFF2485D0082F10E0AE
:107EA000102F00270E291F29000F111F8ED06801E7
:107EB0006FC0863521F484E090D080E0DECF843638
:107EC00009F040C070D06FD0082F6DD080E0C81688
:107ED00080E7D80618F4F601B7BEE895C0E0D1E017
:107EE00062D089930C17E1F7F0E0CF16F0E7DF06D8
:107EF00018F0F601B7BEE89568D007B600FCFDCFD4
:107F0000A601A0E0B1E02C9130E011968C91119780
:107F100090E0982F8827822B932B1296FA010C0160
:107F200087BEE89511244E5F5F4FF1E0A038BF0790
:107F300051F7F601A7BEE89507B600FCFDCF97BE46
:107F4000E89526C08437B1F42ED02DD0F82E2BD052
:107F50003CD0F601EF2C8F010F5F1F4F84911BD097
:107F6000EA94F801C1F70894C11CD11CFA94CF0C13
:107F7000D11C0EC0853739F428D08EE10CD085E9AC
:107F80000AD08FE07ACF813511F488E018D01DD067
:107F900080E101D065CF982F8091C00085FFFCCF94
:107FA0009093C60008958091C00087FFFCCF809118
:107FB000C00084FD01C0A8958091C6000895E0E648
:107FC000F0E098E1908380830895EDDF803219F02E
:107FD00088E0F5DFFFCF84E1DECF1F93182FE3DFCA
:107FE0001150E9F7F2DF1F91089580E0E8DFEE27F6
:047FF000FF270994CA
:027FFE00040479
:00000001FF
